:020000040000FA
:10000000280900204D03000055030000570300009D
:10001000590300005B0300005D03000000000000C6
:100020000000000000000000000000005F0300006E
:10003000610300000000000063030000650300008E
:1000400067030000690300006B0300006D030000FC
:100050006F030000710300007303000075030000CC
:1000600077030000790300007B0300007D0300009C
:100070007F0300008103000083030000850300006C
:1000800087030000890300008B030000C9140000EF
:100090008F030000F114000093030000950300009B
:1000A00097030000990300009B0300009D030000DC
:1000B0009F030000A1030000A3030000A5030000AC
:1000C000A7030000A9030000AB030000AD0300007C
:1000D000AF030000B1030000B3030000B50300004C
:1000E000B7030000B903000000000000BB030000DC
:1000F000BD030000BF030000C1030000C3030000F4
:10010000C5030000C7030000C9030000CB030000C3
:100110000000000000000000CD030000CF0300003D
:10012000D1030000D3030000D5030000D703000073
:10013000D9030000DB030000DD030000DF03000043
:1001400000000000000000000000000000000000AF
:10015000E1030000E3030000E5030000E703000003
:10016000000000000000000000000000000000008F
:10017000000000000000000000000000000000007F
:10018000000000000000000000000000000000006F
:10019000000000000000000000000000000000005F
:1001A000000000000000000000000000000000004F
:1001B000E9030000EB030000ED030000EF03000083
:1001C000F1030000F3030000F5030000F703000053
:1001D000F9030000FB030000FD030000FF03000023
:1001E00001040000030400000504000000000000FA
:1001F0000000000007040000090400000B040000D8
:100200000D0400000F0400000000000000000000CA
:10021000110400001304000015040000170400007E
:10022000190400001B0400001D0400001F0400004E
:10023000210400002304000025040000270400001E
:10024000290400002B0400002D0400002F040000EE
:1002500031040000330400003504000037040000BE
:10026000390400003B0400003D04000000F002F8E7
:1002700000F05CF80AA090E8000C82448344AAF1E4
:100280000107DA4501D100F051F8AFF2090EBAE8E2
:100290000F0013F0010F18BFFB1A43F001031847BA
:1002A000B8150000D81500000A444FF0000C10F8F3
:1002B000013B13F0070408BF10F8014B1D1108BFE4
:1002C00010F8015B641E05D010F8016B641E01F884
:1002D000016BF9D113F0080F1EBF10F8014BAD1CD4
:1002E0000C1B09D16D1E58BF01F801CBFAD505E0F2
:1002F00014F8016B01F8016B6D1EF9D59142D6D34C
:10030000704700000023002400250026103A28BF73
:1003100078C1FBD8520728BF30C148BF0B60704777
:100320001FB501F0D7F91FBD10B510BD00F09BF847
:100330001146FFF7F5FF01F0B1F900F0B9F803B489
:10034000FFF7F2FF03BC00F0C1F800003F48804710
:100350003F480047FEE7FEE7FEE7FEE7FEE7FEE771
:10036000FEE7FEE7FEE7FEE7FEE7FEE7FEE7FEE765
:10037000FEE7FEE7FEE7FEE7FEE7FEE7FEE7FEE755
:10038000FEE7FEE7FEE7FEE7FEE7FEE7FEE7FEE745
:10039000FEE7FEE7FEE7FEE7FEE7FEE7FEE7FEE735
:1003A000FEE7FEE7FEE7FEE7FEE7FEE7FEE7FEE725
:1003B000FEE7FEE7FEE7FEE7FEE7FEE7FEE7FEE715
:1003C000FEE7FEE7FEE7FEE7FEE7FEE7FEE7FEE705
:1003D000FEE7FEE7FEE7FEE7FEE7FEE7FEE7FEE7F5
:1003E000FEE7FEE7FEE7FEE7FEE7FEE7FEE7FEE7E5
:1003F000FEE7FEE7FEE7FEE7FEE7FEE7FEE7FEE7D5
:10040000FEE7FEE7FEE7FEE7FEE7FEE7FEE7FEE7C4
:10041000FEE7FEE7FEE7FEE7FEE7FEE7FEE7FEE7B4
:10042000FEE7FEE7FEE7FEE7FEE7FEE7FEE7FEE7A4
:10043000FEE7FEE7FEE7FEE7FEE7FEE7FEE7000079
:1004400004480549034A054B704700003114000079
:100450006D0200002807002028090020280700203E
:10046000704770477047754600F02CF8AE4605009F
:100470006946534620F00700854618B020B5FFF7BF
:10048000DFFFBDE820404FF000064FF000074FF0BF
:1004900000084FF0000B21F00701AC46ACE8C009A2
:1004A000ACE8C009ACE8C009ACE8C0098D467047AB
:1004B00010B50446AFF300802046BDE81040FFF7BA
:1004C0003EBF000000487047F40100200149182099
:1004D000ABBEFEE7260002007047000010B50448DE
:1004E000007800F025FD01200249087010BD0000D1
:1004F000EF010020F001002070B506460C460025F3
:1005000004B902E0012C00D10125304600F052F977
:10051000A8420ED1002000E0401CB0F57A7FFBDB42
:10052000304600F047F9A84201D1012070BD0020FB
:10053000FCE70020FAE7000010B5024800F00CFDCF
:1005400010BD0000E81600000146052902D34FF057
:10055000FF3070478B4810F8110006287CD2DFE886
:1005600000F003315D8AB6E287480068854A02EBF5
:100570004102537801229A401040824A02EB410224
:100580005278D04001280ED17F4800687D4A02EBA6
:100590004102537801229A4090434FF04022C2F822
:1005A000FC030020D5E778480068764A02EB410258
:1005B000537801229A4010434FF04022C2F8FC03C6
:1005C0000120C6E7714800686E4A02EB4102537889
:1005D00001229A4010406B4A02EB41025278D0400F
:1005E00001280DD169480068664A02EB4102537840
:1005F00001229A409043664AC2F8FC030020A8E713
:10060000624800685F4A02EB4102537801229A4037
:1006100010435F4AC2F8FC0301209AE75D48006876
:10062000584A02EB4102537801229A401040554A41
:1006300002EB41025278D04001280ED155480068A3
:10064000504A02EB4102537801229A409043524AA9
:10065000C2F8FC0300207CE791E04E480068494A5C
:1006600002EB4102537801229A4010434A4AC2F8F1
:10067000FC0301206DE749480068424A02EB410251
:10068000537801229A4010403E4A02EB41025278D0
:10069000D04001280DD1414800683A4A02EB41029E
:1006A000537801229A4090433D4AC2F8FC0300204F
:1006B0004FE73A480068334A02EB4102537801227F
:1006C0009A401043364AC2F8FC03012041E73548FE
:1006D00000682C4A02EB4102537801229A401040F4
:1006E000284A02EB41025278D04001280DD12D4812
:1006F0000068244A02EB4102537801229A40904359
:10070000294AC2F8FC03002023E7264800681D4A56
:1007100002EB4102537801229A401043224AC2F868
:10072000FC03012015E721480068164A02EB41024C
:10073000537801229A401040124A02EB410252784B
:10074000D04001280DD1194800680E4A02EB410241
:10075000537801229A409043154AC2F8FC030020C6
:10076000F7E612480068074A02EB4102537801227B
:100770009A4010430E4AC2F8FC030120E9E600BF8C
:1007800000BFE6E6DE160000FC430040FC530040DC
:1007900000500040FC63004000600040FC730040DB
:1007A00000700040FC43024000400240FC53024005
:1007B000005002400146052902D34FF0FF30704738
:1007C0003F4810F81100062877D2DFE800F0031642
:1007D000293C4F623B480068394A02EB410253789A
:1007E00001229A401040364A02EB41025278D04032
:1007F000012800D1E3E70020E1E733480068304AF0
:1008000002EB4102537801229A4010402C4A02EB3D
:1008100041025278D040012800D1D0E70020CEE735
:100820002A480068264A02EB4102537801229A4086
:100830001040234A02EB41025278D040012800D1F7
:10084000BDE70020BBE7224800681D4A02EB4102D9
:10085000537801229A401040194A02EB4102527823
:10086000D040012800D1AAE70020A8E71948006875
:10087000134A02EB4102537801229A401040104A79
:1008800002EB41025278D040012800D197E70020C6
:1008900095E7114800680A4A02EB410253780122A9
:1008A0009A401040064A02EB41025278D04001289B
:1008B00001D184E701E0002081E74FF0FF307EE7BF
:1008C000DE160000FC430040FC530040FC63004087
:1008D000FC730040FC430240FC53024010B5052865
:1008E00000D310BD5B4A12F81020062A21D2DFE89F
:1008F00002F003213D59759101290DD1564A126824
:10090000544B03EB40035C780123A3401A434FF0A0
:100910004023C3F8FC230CE04F4A12684D4B03EB15
:1009200040035C780123A3409A434FF04023C3F86F
:10093000FC238BE001290CD1484A1268454B03EB9C
:1009400040035C780123A3401A43454BC3F8FC23C2
:100950000BE0424A12683F4B03EB40035C780123F3
:10096000A3409A433E4BC3F8FC236FE001290CD10E
:100970003C4A1268374B03EB40035C780123A340E9
:100980001A43394BC3F8FC230BE0364A1268314B4B
:1009900003EB40035C780123A3409A43324BC3F836
:1009A000FC2353E001290CD1304A1268294B03EB98
:1009B00040035C780123A3401A432D4BC3F8FC236A
:1009C0000BE02A4A1268234B03EB40035C780123B7
:1009D000A3409A43264BC3F8FC2337E001290CD1EE
:1009E000244A12681B4B03EB40035C780123A340AD
:1009F0001A43214BC3F8FC230BE01E4A1268154B27
:100A000003EB40035C780123A3409A431A4BC3F8DD
:100A1000FC231BE001290CD1184A12680D4B03EB93
:100A200040035C780123A3401A43154BC3F8FC2311
:100A30000BE0124A1268074B03EB40035C7801237A
:100A4000A3409A430E4BC3F8FC2300BF00BF00BF76
:100A500047E70000DE160000FC430040FC53004066
:100A600000500040FC63004000600040FC73004008
:100A700000700040FC43024000400240FC53024032
:100A80000050024038B50546687800B938BD72B6E6
:100A900000240020009028780C2870D2DFE800F0B5
:100AA00006111C27323D485562707D8A604C132028
:100AB00000906048006820F00100401C5D4908601B
:100AC00086E05D4C152000905A48006820F0020036
:100AD000801C584908607BE0584C1720009055480E
:100AE000006820F00400001D5249086070E0544C7A
:100AF000232000904F48006820F0080008304D493E
:100B0000086065E04F4C462000904A48006820F09D
:100B100010001030474908605AE04B4C5C200090B0
:100B20004448006820F020002030424908604FE02F
:100B3000464C5E2000903F485830006820F001008D
:100B4000401C3C495831086042E0414C6020009014
:100B500038485830006820F00200801C3549583170
:100B6000086035E03B4C6220009032485830006805
:100B700020F00400001D2F495831086028E026E0CD
:100B8000354C642000902B485830006820F0080055
:100B900008302849583108601AE0304C662000902F
:100BA00024485830006820F0100010302149583196
:100BB00008600DE02A4C682000901E4858300068FC
:100BC00020F0200020301B495831086000E05DE72C
:100BD00000BF297E9DF8000000F0EEF8E06820F0EC
:100BE0000100E06000202060606820F020002030DC
:100BF0006060297C606861F301006060A9786068CA
:100C000061F304106060606820F4807000F580700B
:100C10006060606820F4806000F580606060A069BA
:100C200020F00100401CA06162B600BF2EE700006A
:100C30000000034004E60F40001003400020034082
:100C40000030034000400340005003400060034078
:100C50000070034000C0044000D0044000E00440A5
:100C600000F0044010B50020FFF76EFC0248006859
:100C7000401C0149086010BD0000002010B5012093
:100C8000FFF762FC02480068401C0149086010BD83
:100C900000000020704770477047704770477047EA
:100CA00070477047704770472DE9F8470146354E49
:100CB00006EB41150020002600962E780C2E37D228
:100CC000DFE806F0060A0E12161A1E22262A2E3217
:100CD0002D48202600962DE02C482026009629E05D
:100CE0002B482026009625E02A482026009621E061
:100CF0002948202600961DE028482026009619E065
:100D000027484026009615E026484026009611E028
:100D10002548402600960DE024484026009609E02C
:100D200023484026009605E022484026009601E030
:100D3000BDE8F88700BF102700269446ACFB079A51
:100D400003FB07A702FB06734A4600249DF80060D8
:100D5000202E02D0402E0DD108E082620026D2F172
:100D6000FF379E4101D2A6B2866303E0C36282626E
:100D700000BF00BF00BFC66826F00106761CC66033
:100D800000BFD5E70800002000000340001003402A
:100D90000020034000300340004003400050034067
:100DA000006003400070034000C0044000D00440D5
:100DB00000E0044000F004402DE9F04102460B46FB
:100DC000104605464FEAE07C00EB9C7CCCF387069E
:100DD0004FEAE07C00EB9C7C4FEAAC0CA0EB8C0C67
:100DE0000CF0FF074B4D05EB860137B1012F09D001
:100DF000022F0CD0032F14D10EE00D6863F34715BA
:100E00000D600EE00D6863F34F350D6009E00D686D
:100E100063F357550D6004E00D6863F35F750D6073
:100E200000BF00BF00280EDB20280CDA3A4D2D68E9
:100E30004FF0010C0CFA00FC45EA0C054FF0E02CD9
:100E4000CCF8005146E01F280EDD40280CDA4FF0A8
:100E5000E025D5F804C1012585404CEA050C4FF08A
:100E6000E025C5F804C135E03F280EDD60280CDA26
:100E70004FF0E025D5F808C1012585404CEA050C66
:100E80004FF0E025C5F808C124E05F280EDD80287A
:100E90000CDA4FF0E025D5F80CC1012585404CEA6D
:100EA000050C4FF0E025C5F80CC113E07F280FDDDD
:100EB0008B280DDA184D10352D684FF0010C0CFA07
:100EC00000FC45EA0C054FF0E02CCCF8105101E095
:100ED000BDE8F081002400BF16E004EB440C0F4D88
:100EE00015F80C5095420DD14FF0010C04EB44085D
:100EF0000A4D454485F801C004EB440C074D654498
:100F0000AB7003E0651CECB2182CE6DB00BF00BF41
:100F1000DEE7000000E400E000E100E0A6010020C0
:100F200010B5024800F018F810BD0000E8160000E7
:100F300010B504462046FFF707FB10BD10B5044668
:100F400000212046FFF7CAFC10BD10B50446012160
:100F50002046FFF7C3FC10BD30B5014601B930BDD6
:100F60000020002200BF5EE201EBC2039B7803B9C0
:100F700057E211F83230062B3BD2DFE803F0030DC5
:100F8000161F28314FF04020F84B1B6823F0010357
:100F90005B1CF64C23602CE0F548F44B1B6823F0F7
:100FA00002039B1CF14C236023E0F248EF4B1B68CB
:100FB00023F004031B1DED4C23601AE0EE48EB4BBD
:100FC0001B6823F008030833E84C236011E0EB486A
:100FD000E64B1B6823F010031033E44C236008E059
:100FE000E748E24B1B6823F020032033DF4C2360EB
:100FF00000BF00BF11F83230032B04D101EBC20354
:101000005B78072B07D011F83230052B11D101EB9B
:10101000C2035B786BB9DB4BC0F82035D0F82435C0
:1010200001EBC20465780124AC402343C0F82435A9
:1010300009E011F83230022B05D101EBC2035B78D5
:10104000042B00DAEDE101EBC2035B7923B1012B44
:101050002AD0022B2AD128E000F59660836F01EB9D
:10106000C20465780124AC40A343836750F8903CE8
:1010700001EBC20465780124AC40A34340F8903CE6
:10108000C36F01EBC2046478A5000F24AC40A343F6
:10109000C367C36E01EBC20465780124AC402343EF
:1010A000C366A0F5966029E028E027E000F5966089
:1010B000836F01EBC20465780124AC40A3438367CE
:1010C00050F8903C01EBC20465780124AC40A34386
:1010D00040F8903CC36F01EBC2046478A5000F2474
:1010E000AC40A343C367C36E01EBC204657801241F
:1010F000AC402343C366A0F5966000BF00BF01EB80
:10110000C203DB78012B7DD1D0F8003401EBC2049F
:1011100065780124AC402343C0F8003401EBC203DE
:10112000DB7923B1012B1FD0022B57D139E000F519
:10113000A060036801EBC20465780124AC4023433E
:101140000360436801EBC20465780124AC40A3430B
:101150004360836801EBC20465780124AC40A3437B
:101160008360A0F5A06058E000F5A060036801EB83
:10117000C20465780124AC40A3430360436801EBDB
:10118000C20465780124AC4023434360836801EBCB
:10119000C20465780124AC40A3438360A0F5A0603D
:1011A0003BE000F5A060036801EBC2046578012410
:1011B000AC40A3430360436801EBC204657801249B
:1011C000AC40A3434360836801EBC204657801240B
:1011D000AC4023438360A0F5A0601EE000F5A06052
:1011E000036801EBC20465780124AC40234303602B
:1011F000436801EBC20465780124AC40A34343601B
:10120000836800E025E001EBC20465780124AC406E
:10121000A3438360A0F5A06000BF00BF01EBC20341
:101220001B79012B0AD1D0F8FC3301EBC20465789D
:101230000124AC402343C0F8FC33F1E0D0F8FC3388
:1012400001EBC20465780124AC40A343C0F8FC3331
:10125000E6E001EBC203DB78002B7DD1D0F800344F
:1012600001EBC20465780124AC40A343C0F800340C
:1012700001EBC2039B7933B1012B29D0022B4CD057
:10128000032B6AD180E000F20C50436801EBC204EA
:1012900065780124AC4023434360836801EBC204BA
:1012A00065780124AC40A3438360036801EBC2046A
:1012B00065780124AC40A3430360C36801EBC2041A
:1012C00065780124AC40A343C360A0F20C50A5E0B4
:1012D00000F20C50436801EBC20465780124AC4075
:1012E000A3434360836801EBC20465780124AC40EA
:1012F00023438360036801EBC20465780124AC409A
:10130000A3430360C36801EBC20465780124AC40C9
:10131000A343C360A0F20C5080E000F20C5043687D
:1013200001EBC20465780124AC40A34343608368A9
:1013300001EBC20465780124AC40A34383600368D9
:1013400001EBC20465780124AC4023430360C36809
:1013500001EBC204657801E061E03AE00124AC40B1
:10136000A343C360A0F20C5058E0000008E60F4011
:10137000005000400060004000700040004002400B
:10138000005002404B434F4C00F20C50436801EBBD
:10139000C20465780124AC40A3434360836801EB39
:1013A000C20465780124AC40A3438360036801EB69
:1013B000C20465780124AC40A3430360C36801EB19
:1013C000C20465780124AC402343C360A0F20C50F2
:1013D00024E000F20C50436801EBC204657801245C
:1013E000AC4023434360836801EBC2046578012469
:1013F000AC40A3438360036801EBC2046578012419
:10140000AC40A3430360C46801EBC2035D780123D1
:10141000AB409C43C460A0F20C5000BF00E09EE5CE
:1014200000BF531CDAB22B2AFFF49EAD00BF96E535
:101430001B49096841F47001194A116019491A4A97
:1014400011671A4911661A4911661A491167002075
:1014500000E0401CB0F57A7FFBD31749124A1166B1
:1014600016491167002000E0401CB0F57A7FFBD3DD
:1014700013490D4A116600BF0B49096D01F0400187
:101480004029F9D10F49084A11664FF0C071116720
:10149000002000E0401C42F210718842FAD37047ED
:1014A00088ED00E01028800700E00F40D13A8E0759
:1014B000422D9E0100288001420D9E0100088001FE
:1014C000420DDE014205DE0110B50748406A20F0FA
:1014D0000100401C044948620448406910B10349B6
:1014E0004869804710BD000000000340080000204C
:1014F00010B50748406A20F00100401C04494862CA
:101500000448406B10B10349486B804710BD000090
:1015100000100340080000202DE9F04780460C46EB
:1015200015461E46DDF82090FFF7FAFCFFF704F899
:10153000002700BF49464046FEF7DEFF0028F9D0ED
:101540002046FFF702FD002000E0401C1C498842B5
:10155000FBDB2046FFF7F2FC26E049464046FEF75B
:10156000CBFF01280CD12046FFF7EFFC002000E064
:10157000401C13498842FBDB2046FFF7DFFC14E0E8
:1015800049462846FEF7B8FF01280DD13046FFF73F
:10159000DCFC002000E0401C09498842FBDB3046AF
:1015A000FFF7CCFC781CC7B2D7E700BF002000E0F3
:1015B000401C03498842FBDB3846BDE8F087000049
:1015C00040420F002DE9F05F06468A4614469946D0
:1015D000DDF828B0FFF7A4FC01215046FFF77EF9A3
:1015E000294806700120294901EB46114870022064
:1015F000264901EB461108742548244901EB4611A0
:101600004861224901EB4610FFF73CFA002536E01D
:101610004D46A54200DD2546002D12DD1D4905FB86
:1016200001F0C31707463A463046FFF73DFB00BFBF
:10163000194800780128FBD1002017490870601B69
:1016400084B2012C00DA1CE000215046FFF746F975
:101650005D46A54200DD25460E4905FB01F0C31796
:1016600007463A463046FFF71FFB00BF0A4800789E
:101670000128FBD1002008490870601B84B2002CAF
:10168000C6DC00BFBDE8F09FEE010020080000208E
:10169000DD04000040420F00F001002008B50020EA
:1016A00002230422012100900320FFF735FF0446A6
:1016B000002002230422012100900320FFF72CFFC9
:1016C000054606E02346C822002108460095FFF79C
:1016D00079FFF7E74FF04070E1EE100A704705011F
:1016E00005020503050405000000000000000000DD
:1016F00000010000000000000002000000000000E7
:1017000000030000000000000004000000000000D2
:1017100000050000000000000006000000000000BE
:1017200000070000000000000100000000000000B1
:1017300001010000000000000102000000000000A4
:101740000103000000000000010400000000000090
:10175000010500000000000001060000000000007C
:10176000010700000000000002000000000000006F
:101770000201000000000000020200000000000062
:10178000020300000000000002040000000000004E
:10179000020500000000000002060000000000003A
:1017A000020700000000000003000000000000002D
:1017B0000301000000000000030200000000000020
:1017C000030300000000000003040000000000000C
:1017D00003050000000000000306000000000000F8
:1017E00003070000000000000400000000000000EB
:1017F00004010000000000000402000000000000DE
:1018000004030000000000000404000000000000C9
:1018100004050000000000000500010001000000B8
:1018200005010101000001000502010100000100A5
:101830000503010100000100050401000100000092
:10184000010001014000000080020020800600200D
:1018500000070020000000007818000000000020B1
:10186000F4010000A802000020190000F40100208B
:101870003407000004030000A162015324F4320283
:10188000AB650C1E0910209A7D200A1102209A993E
:10189000200A1103209A9B200A1104209A9D200AF5
:1018A0001105209A9F200A1106209AA1200A1107EB
:1018B000209AA3200A1108209AA5200A1109209A2B
:1018C000A7200A110A209A95200A110B209A972026
:1018D00011100B01FD0101FE0201FF0301130401C0
:1018E000130501200E060106070101080106090182
:1018F0000613221422152216221722181A234A210F
:1019000022462247225C225D225E225F2260226103
:10191000226222632264226522662267226882692B
:040000050000034DA7
:00000001FF
